:100000000C9432000C9444000C9444000C94440072
:100010000C9444000C9444000C9444000C94440050
:100020000C9444000C9444000C9444000C94440040
:100030000C9444000C9444000C9444000C94440030
:100040000C9444000C9444000C9444000C94440020
:100050000C9444005A005E00630068006F00740056
:100060007B00820011241FBECFE5D4E0DEBFCDBFF0
:1000700020E0A0E6B0E001C01D92AD36B207E1F786
:100080000E94A0010C9452030C940000379A86B190
:10009000856086B93198359887B18F7387B93D9A55
:1000A000089590E088309105A0F5FC01E65DFF4FD2
:1000B0000C943D0387B1807E87B92EC087B1817EC5
:1000C00087B9389A29C087B1827E87B9399A24C006
:1000D00087B1837E87B987B1836087B91DC087B137
:1000E000847E87B93A9A18C087B1857E87B987B16F
:1000F000856087B911C087B1867E87B987B1866070
:1001000087B90AC087B1877E87B987B1876087B909
:1001100003C087B1807E87B9369A349BFECF349A6C
:1001200085B10895882311F0C69A01C0C698662348
:1001300014F4C49A01C0C49866FF02C0C39A01C0F7
:10014000C39865FF02C0C29A01C0C29864FF02C092
:10015000C19A01C0C198C79A0000C79863FF02C046
:10016000C49A01C0C49862FF02C0C39A01C0C39878
:1001700061FF02C0C29A01C0C29860FF02C0C19A6A
:1001800001C0C198C79A0000C7988FE39CE9019706
:10019000F1F700C00000089587B38E6D87BB2FEF85
:1001A00089EF90E0215080409040E1F700C00000CE
:1001B0002FEF83EF91E0215080409040E1F700C0A5
:1001C000000063E080E00E9492008FEB9DE50197C4
:1001D000F1F700C0000063E080E00E9492008FEB26
:1001E0009DE50197F1F700C0000063E080E00E9408
:1001F00092008FEB9DE50197F1F700C000006AE2E5
:1002000080E00E9492008FEB9DE50197F1F700C01E
:1002100000006AE280E00E9492008FEB9DE501976A
:10022000F1F700C0000068E080E00E9492008FEBD0
:100230009DE50197F1F700C0000061E080E00E94B9
:1002400092008FEB9DE50197F1F700C0000060E19F
:1002500080E00E9492008FEB9DE50197F1F700C0CE
:10026000000066E080E00E9492008FEB9DE5019720
:10027000F1F700C0000062E080E00E9492008FEB86
:100280009DE50197F1F700C000006AE280E00E945E
:1002900092008FEB9DE50197F1F700C000006CE044
:1002A00080E00E9492008FEB9DE50197F1F700C07E
:1002B00000000895682F606880E00E94920085ED3C
:1002C0008A95F1F700000895682F81E00E9492005E
:1002D00085ED8A95F1F7000008958AB3886F8ABB8F
:1002E0008BB387708BBBBC98C49A84B38C7F84BB60
:1002F00085B3836085BBA79AAF9811BA8FEF82BB95
:1003000008950F931F93CF93DF93D82FCAE000E097
:1003100010E08D2F0E945100080F111DC150C9F728
:100320009801ADECBCEC0E94430396958795969599
:10033000879596958795DF91CF911F910F9108959D
:100340000E946D010E9446000E94CC0000E610E071
:100350000F2EFCE6EF2EF0E0FF2EF02DCBE6D0E0E6
:100360000F2EF4EADF2EF02D0F2EF8EACF2EF02D0F
:10037000B49918C080E00E948101843320F4833056
:1003800020F48FE403C08D2D01C08C2DF8018187EE
:10039000F701808182608083B49BFECFFAE6FA95F4
:1003A000F1F700C0809918C080E00E948101843379
:1003B00020F4833020F48FE403C08D2D01C08C2DF8
:1003C000F8018287F701808184608083809BFECF63
:1003D000FAE6FA95F1F700C0819917C081E00E9412
:1003E0008101843A20F4833020F48FE403C08D2D02
:1003F00001C08C2DF8018483888180618883819B72
:10040000FECFFAE6FA95F1F700C0829917C081E0B5
:100410000E948101843A20F4833020F48FE403C0E9
:100420008D2D01C08C2DF8018583888180628883A1
:10043000829BFECFFAE6FA95F1F700C0839917C0C8
:1004400081E00E948101843A20F4833020F48FE41B
:1004500003C08D2D01C08C2DF801868388818064B6
:100460008883839BFECFFAE6FA95F1F700C0849962
:1004700017C081E00E948101843A20F4833020F487
:100480008FE403C08D2D01C08C2DF80180838881FD
:1004900081608883849BFECFFAE6FA95F1F700C06D
:1004A000859917C081E00E948101843A20F483304D
:1004B00020F48FE403C08D2D01C08C2DF8018183C1
:1004C000888182608883859BFECFFAE6FA95F1F7F2
:1004D00000C0869917C081E00E948101843A20F40F
:1004E000833020F48FE403C08D2D01C08C2DF801E2
:1004F0008283888184608883869BFECFFAE6FA95A2
:10050000F1F700C0879917C081E00E948101843A09
:1005100020F4833020F48FE403C08D2D01C08C2D96
:10052000F8018383888188608883879BFECFFAE601
:10053000FA95F1F700C0989918C082E00E948101F5
:10054000813720F4823020F48FE403C08D2D01C068
:100550008C2DF8018087F701808181608083989BD2
:10056000FECFFAE6FA95F1F700C0999917C082E03C
:100570000E948101813720F4823020F48FE403C08F
:100580008D2D01C08C2DF801878388818068888338
:10059000999BFECFFAE6FA95F1F700C0F70180814A
:1005A00081FF09C08D7F808388E10E945A01F80194
:1005B00081850E946401F701808182FF09C08B7FE1
:1005C000808380E20E945A01F80182850E946401C2
:1005D000888184FF09C08F7E88838EE10E945A0142
:1005E000F80184810E946401888185FF09C08F7DA4
:1005F000888384E20E945A01F80185810E94640187
:10060000888186FF09C08F7B888380E40E945A011D
:10061000F80186810E946401888180FF09C08E7F75
:10062000888384E00E945A01F80180810E9464015D
:10063000888181FF09C08D7F88838AE00E945A01EA
:10064000F80181810E946401888182FF09C08B7F4B
:10065000888382E10E945A01F80182810E9464012C
:10066000888183FF85CE877F888386E10E945A0137
:10067000F80183810E9464017BCEEE0FFF1F05907D
:10068000F491E02D0994A29FB001B39FC001A39FF4
:10069000700D811D1124911DB29F700D811D1124BB
:0806A000911D0895F894FFCFAD
:00000001FF
