:100000000C948A000C949F000C949F000C949F0009
:100010000C949F000C949F000C949F000C949F00E4
:100020000C949F000C949F000C949F000C949F00D4
:100030000C949F000C949F000C949F000C949F00C4
:100040000C949F000C949F000C949F000C949F00B4
:100050000C949F00B500B900BE00C300CA00CF00D9
:10006000D600DD003402AD02AD02AD02AD02AD023C
:10007000AD02AD02AD02AD02AD02AD02AD02AD0208
:10008000AD02AD027602AD02AD02AD02AD02AD022F
:10009000AD02AD02AC022A022C022E023002320264
:1000A000360238023A023C023E0240024202440258
:1000B000460248024A024C024E02500252025402C8
:1000C000560258025A025C025E0260026202640238
:1000D000660268026A026C026E02700272027402A8
:1000E00078027A027C027E02800282028402860208
:1000F00088028A028C028E02900292029402960278
:1001000098029A029C029E02A002A202A402A602E7
:10011000A802AA0211241FBECFE5D4E0DEBFCDBFE6
:1001200010E0A0E6B0E0E0E9F9E002C005900D9231
:10013000A43EB107D9F70E9430030C94C6040C9476
:100140000000379A86B1856086B93198359887B1B5
:100150008F7387B93D9A089590E088309105A0F596
:10016000FC01E65DFF4F0C94B10487B1807E87B936
:100170002EC087B1817E87B9389A29C087B1827E27
:1001800087B9399A24C087B1837E87B987B18360E4
:1001900087B91DC087B1847E87B93A9A18C087B1E4
:1001A000857E87B987B1856087B911C087B1867EA2
:1001B00087B987B1866087B90AC087B1877E87B95A
:1001C00087B1876087B903C087B1807E87B9369AC7
:1001D000349BFECF349A85B10895882311F0C59AD7
:1001E00001C0C598662314F4C39A01C0C39866FF82
:1001F00002C0C29A01C0C29865FF02C0C19A01C084
:10020000C19864FF02C0C09A01C0C098C69A00009D
:10021000C69863FF02C0C39A01C0C39862FF02C0C0
:10022000C29A01C0C29861FF02C0C19A01C0C198C0
:1002300060FF02C0C09A01C0C098C69A0000C6986C
:100240008FE39CE90197F1F700C00000089587B3A0
:100250008F6687BB2FEF89EF90E021508040904060
:10026000E1F700C000002FEF83EF91E021508040C4
:100270009040E1F700C0000063E080E00E94ED00E4
:100280008FEB9DE50197F1F700C0000063E080E08F
:100290000E94ED008FEB9DE50197F1F700C0000093
:1002A00063E080E00E94ED008FEB9DE50197F1F7A0
:1002B00000C000006AE280E00E94ED008FEB9DE547
:1002C0000197F1F700C000006AE280E00E94ED00B3
:1002D0008FEB9DE50197F1F700C0000068E080E03A
:1002E0000E94ED008FEB9DE50197F1F700C0000043
:1002F00061E080E00E94ED008FEB9DE50197F1F752
:1003000000C0000060E180E00E94ED008FEB9DE501
:100310000197F1F700C0000066E080E00E94ED0068
:100320008FEB9DE50197F1F700C0000062E080E0EF
:100330000E94ED008FEB9DE50197F1F700C00000F2
:100340006AE280E00E94ED008FEB9DE50197F1F7F6
:1003500000C000006CE080E00E94ED008FEB9DE5A6
:100360000197F1F700C000000895682F606880E0F1
:100370000E94ED0085ED8A95F1F700000895682F41
:1003800081E00E94ED0085ED8A95F1F70000089567
:100390002F923F924F925F926F927F928F929F9295
:1003A000AF92BF92CF92DF92EF92FF920F931F9383
:1003B000CF93DF93EC019881992309F4E4C0DE0127
:1003C00020E00F2EF7EC2F2EF02D0F2EF6EC3F2E07
:1003D000F02D0F2EF5EC4F2EF02D0F2EF4EC5F2E9E
:1003E000F02D0F2EF3EC6F2EF02D0F2EF2EC7F2E52
:1003F000F02D0F2EF6EE8F2EF02D0F2EF1EC9F2EFE
:10040000F02D0F2EF0ECAF2EF02D0F2EF5EEBF2EAF
:10041000F02D0F2EF8E7CF2EF02D0F2EF4EEDF2E5D
:10042000F02D0F2EF9E7EF2EF02D0F2EFFEBFF2E04
:10043000F02D03E610E73EEB8FE6492F50E0FA017E
:10044000E85AF109E835F10508F087C0EE5CFF4F86
:100450000C94B10490EA81C092E47FC091EA7DC01F
:1004600090EE7BC095E479C092EA77C093EA75C0BC
:1004700094EA73C095EA71C096EA6FC09BE46DC0C0
:1004800097EA6BC09DE469C098E467C09FE465C0CB
:1004900098EA63C090E561C093E45FC094E55DC0F5
:1004A00099EA5BC09AEA59C098E557C091EE55C0E9
:1004B0009BEA53C09CEA51C092EE4FC09DEA4DC0EA
:1004C0009EEA4BC092E649C09FEA47C090EB45C008
:1004D00091EB43C091E641C092EB3FC093EB3DC02E
:1004E00094EB3BC093EE39C095E637C095EB35C031
:1004F00096EB33C097EB31C098EB2FC099EB2DC032
:100500009AEB2BC09BEB29C09CEB27C09DEB25C031
:10051000982F23C0932F21C0912F1FC0902F1DC053
:100520009F2D1BC09E2D19C09D2D17C09C2D15C041
:100530009B2D13C09A2D11C0992D0FC0982D0DC061
:10054000972D0BC0962D09C0952D07C0942D05C081
:10055000932D03C0922D01C091E49C932F5FDE0187
:10056000A20FB11D9C91911168CF8881882359F009
:100570008E01D0E00E94BF01DF5FF801ED0FF11D99
:1005800080818111F7CFDF91CF911F910F91FF9063
:10059000EF90DF90CF90BF90AF909F908F907F9023
:1005A0006F905F904F903F902F900895CF93DF937F
:1005B000EC0180E00E94B501CE010E94C801DF91EC
:1005C000CF910895CF93DF93EC0180E40E94B501B1
:1005D000CE010E94C801DF91CF9108958AB3886F40
:1005E0008ABB8BB387708BBBBC98C49A84B38C7B5B
:1005F00084BB85B3836485BBA79AAF9811BA8FEF8C
:1006000082BB0895EF92FF920F931F93CF937C01CB
:10061000CAE000E010E0F70182810E94AC00080F00
:10062000111DC150C1F79801ADECBCEC0E94B7049C
:10063000969587959695879596958795F7019481D8
:10064000981728F09581981720F08FE403C084EA6A
:1006500001C088EACF911F910F91FF90EF9008950C
:10066000CF93DF93CDB7DEB7C855D1090FB6F89455
:10067000DEBF0FBECDBF0E94EE020E9427010E9486
:10068000A10082EA90E00E94D60286EC90E00E94EF
:10069000E20226E0E0E6F0E0CE010196DC01019006
:1006A0000D922A95E1F726E0E6E6F0E0DE011796E6
:1006B00001900D922A95E1F726E0ECE6F0E0DE01EC
:1006C0001D9601900D922A95E1F726E0E2E7F0E011
:1006D000DE01539601900D922A95E1F726E0E8E7B6
:1006E000F0E0DE01599601900D922A95E1F726E09F
:1006F000EEE7F0E0DE015F9601900D922A95E1F7BA
:1007000026E0E4E8F0E0DE01959601900D922A954E
:10071000E1F726E0EAE8F0E0DE019B9601900D9219
:100720002A95E1F726E0E0E9F0E0DE01D1960190BC
:100730000D922A95E1F726E0E6E9F0E0DE01D79692
:1007400001900D922A95E1F726E0ECE9F0E0DE0158
:10075000DD9601900D922A95E1F725969FAF8EAF19
:100760002597069627969FAF8EAF279706962996D0
:100770009FAF8EAF299706962B969FAF8EAF2B9784
:1007800006962D969FAF8EAF2D9706962F969FAF0C
:100790008EAF2F97069661969FAF8EAF61970696A4
:1007A00063969FAF8EAF6397069665969FAF8EAFA9
:1007B0006597069667969FAF8EAF67970696699680
:1007C0009FAF8EAF6997B4990EC0CE01C7960E94B5
:1007D000020388AF8FA981608FABB49BFECF85E306
:1007E0008A95F1F7000080990EC0CE01CD960E9447
:1007F00002038EAF8DAD81608DAF809BFECFE5E3B0
:10080000EA95F1F7000081990EC0CE0149960E9449
:1008100002038A8F898D8160898F819BFECFF5E3EA
:10082000FA95F1F7000082990EC0CE014F960E9412
:10083000020388A38F8D81608F8F829BFECF85E31B
:100840008A95F1F7000083990EC0CE0185960E942B
:1008500002038EA38DA181608DA3839BFECFE5E370
:10086000EA95F1F7000084990EC0CE0101960E942E
:1008700002038A83898181608983849BFECFF5E3AB
:10088000FA95F1F7000085990EC0CE0107960E94F7
:10089000020388878F8181608F83859BFECF85E3EC
:1008A0008A95F1F7000086990EC0CE010D960E9440
:1008B00002038E878D8581608D87869BFECFE5E361
:1008C000EA95F1F7000087990EC0CE0143960E9489
:1008D00002038C8B8B8981608B8B879BFECFF5E32A
:1008E000FA95F1F7000098990EC0CE01C1960E94CA
:1008F00002038AAB89A9816089AB989BFECF85E30F
:100900008A95F1F70000999924C0CE018B960E9438
:1009100002038CA78BA581608BA7999BFECFE5E393
:10092000EA95F1F7000015C0F801E190F1908F0110
:10093000F701808180FF09C08E7F808383810E94C0
:10094000B501F70181810E94BF010C151D0561F7FA
:100950003ACF8E010D5B1F4F6801F6E1CF0ED11C1F
:10096000E3CFEE0FFF1F0590F491E02D0994A29FB5
:10097000B001B39FC001A39F700D811D1124911D73
:10098000B29F700D811D1124911D0895F894FFCF21
:100990000000010432050000010A320500000110C8
:1009A00032050000011632050000011C320500006E
:1009B000012232050000014432050000024A3204DF
:1009C0000000025032040000005628030000005CC2
:1009D00028034742312D3F204742322D3F204742D6
:1009E000332D3F204742342D3F204742352D3F20B5
:1009F0004742362D3F004742372D3F20D3CFD12DE0
:100A00003F20CCD0C42D3F20CFCF312D3F20CFCFA2
:040A1000322D3F0044
:00000001FF
