:100000000C948A000C94A7000C94A7000C94A700F1
:100010000C94A7000C94A7000C94A7000C94A700C4
:100020000C94A7000C94A7000C94A7000C94A700B4
:100030000C94A7000C94A7000C94A7000C94A700A4
:100040000C94A7000C94A7000C94A7000C94A70094
:100050000C94A700BD00C100C600CB00D200D700A1
:10006000DE00E500E70160026002600260026002FB
:100070006002600260026002600260026002600270
:100080006002600229026002600260026002600297
:10009000600260025F02DD01DF01E101E301E501D1
:1000A000E901EB01ED01EF01F101F301F501F701C8
:1000B000F901FB01FD01FF01010203020502070234
:1000C00009020B020D020F021102130215021702A0
:1000D00019021B021D021F02210223022502270210
:1000E0002B022D022F023102330235023702390270
:1000F0003B023D023F0241024302450247024902E0
:100100004B024D024F02510253025502570259024F
:100110005B025D0211241FBECFE5D4E0DEBFCDBF80
:1001200010E0A0E6B0E0ECE3F9E002C005900D922B
:10013000A43AB107D9F720E0A4EAB0E001C01D92CB
:10014000A13BB207E1F70E94E2020C949C040C94DC
:100150000000379A86B1856086B93198359887B1A5
:100160008F7387B93D9A089590E088309105A0F586
:10017000FC01E65DFF4F0C94870487B1807E87B950
:100180002EC087B1817E87B9389A29C087B1827E17
:1001900087B9399A24C087B1837E87B987B18360D4
:1001A00087B91DC087B1847E87B93A9A18C087B1D4
:1001B000857E87B987B1856087B911C087B1867E92
:1001C00087B987B1866087B90AC087B1877E87B94A
:1001D00087B1876087B903C087B1807E87B9369AB7
:1001E000349BFECF349A85B10895882311F0C69AC6
:1001F00001C0C698662314F4C49A01C0C49866FF6F
:1002000002C0C39A01C0C39865FF02C0C29A01C070
:10021000C29864FF02C0C19A01C0C198C79A000089
:10022000C79863FF02C0C49A01C0C49862FF02C0AD
:10023000C39A01C0C39861FF02C0C29A01C0C298AC
:1002400060FF02C0C19A01C0C198C79A0000C79858
:100250008FE39CE90197F1F700C00000089587B390
:100260008E6D87BB2FEF89EF90E02150804090404A
:10027000E1F700C000002FEF83EF91E021508040B4
:100280009040E1F700C0000063E080E00E94F500CC
:100290008FEB9DE50197F1F700C0000063E080E07F
:1002A0000E94F5008FEB9DE50197F1F700C000007B
:1002B00063E080E00E94F5008FEB9DE50197F1F788
:1002C00000C000006AE280E00E94F5008FEB9DE52F
:1002D0000197F1F700C000006AE280E00E94F5009B
:1002E0008FEB9DE50197F1F700C0000068E080E02A
:1002F0000E94F5008FEB9DE50197F1F700C000002B
:1003000061E080E00E94F5008FEB9DE50197F1F739
:1003100000C0000060E180E00E94F5008FEB9DE5E9
:100320000197F1F700C0000066E080E00E94F50050
:100330008FEB9DE50197F1F700C0000062E080E0DF
:100340000E94F5008FEB9DE50197F1F700C00000DA
:100350006AE280E00E94F5008FEB9DE50197F1F7DE
:1003600000C000006CE080E00E94F5008FEB9DE58E
:100370000197F1F700C000000895682F606880E0E1
:100380000E94F50085ED8A95F1F700000895682F29
:1003900081E00E94F50085ED8A95F1F7000008954F
:1003A000482F50E0FA01E85AF109E835F10508F064
:1003B00087C0EE5CFF4F0C94870480EA089582E4C6
:1003C000089581EA089580EE089585E4089582EA0B
:1003D000089583EA089584EA089585EA089586EAEF
:1003E00008958BE4089587EA08958DE4089588E4DC
:1003F00008958FE4089588EA089580E5089583E4D8
:10040000089584E5089589EA08958AEA089588E5BB
:10041000089581EE08958BEA08958CEA089582EE9E
:1004200008958DEA08958EEA089582E608958FEA88
:10043000089580EB089581EB089581E6089582EB9D
:10044000089583EB089584EB089583EE089585E67F
:10045000089585EB089586EB089587EB089588EB62
:10046000089589EB08958AEB08958BEB08958CEB42
:1004700008958DEB08958FE608958EEB089580E73B
:10048000089583E608958FEB089589E7089584EE33
:10049000089588E7089585EE089580EC089581EC2D
:1004A000089586EE089582EC089583EC089584EC17
:1004B000089585EC089586EC089587EC089581E40D
:1004C0000895EF92FF920F931F93CF93FC018081C9
:1004D000882379F07F018F01C0E00E94D001F801EC
:1004E0008083CF5F87010C0F111DF801808181117E
:1004F000F4CFCF911F910F91FF90EF9008950F933C
:100500001F93CF938C010E946102F80180818823A0
:1005100051F0C0E00E94C701CF5FF801EC0FF11D60
:1005200080818111F7CFCF911F910F910895CF93C3
:10053000DF93EC0180E00E94BD01CE010E947F02AA
:10054000DF91CF910895CF93DF93EC0180E40E9477
:10055000BD01CE010E947F02DF91CF9108958AB341
:10056000886F8ABB8BB387708BBBBC98C49A84B3EB
:100570008C7F84BB85B3836085BBA79AAF9811BA83
:100580008FEF82BB08950F931F93CF93DF93D82FE4
:10059000CAE000E010E08D2F0E94B400080F111D8A
:1005A000C150C9F79801ADECBCEC0E948D04969542
:1005B00087959695879596958795DF91CF911F9111
:1005C0000F9108950E94AF020E942F010E94A9007E
:1005D00080E690E00E94970284E890E00E94A302E7
:1005E00004EA10E00F2EF0EBEF2EF0E0FF2EF02DDE
:1005F000CFEAD0E00F2EF4EADF2EF02D0F2EF8EA2E
:10060000CF2EF02DB49918C080E00E94C30284332D
:1006100020F4833020F48FE403C08D2D01C08C2D95
:10062000F8018187F701808182608083B49BFECFCF
:10063000FAE6FA95F1F700C0809918C080E00E94B0
:10064000C302843320F4833020F48FE403C08D2D63
:1006500001C08C2DF8018287F7018081846080833E
:10066000809BFECFFAE6FA95F1F700C0819917C09A
:1006700081E00E94C302843A20F4833020F48FE4A6
:1006800003C08D2D01C08C2DF80184838881806189
:100690008883819BFECFFAE6FA95F1F700C0829934
:1006A00017C081E00E94C302843A20F4833020F412
:1006B0008FE403C08D2D01C08C2DF80185838881C6
:1006C00080628883829BFECFFAE6FA95F1F700C03C
:1006D000839917C081E00E94C302843A20F48330DA
:1006E00020F48FE403C08D2D01C08C2DF80186838A
:1006F000888180648883839BFECFFAE6FA95F1F7C0
:1007000000C0849917C081E00E94C302843A20F49B
:10071000833020F48FE403C08D2D01C08C2DF801AF
:100720008083888181608883849BFECFFAE6FA9576
:10073000F1F700C0859917C081E00E94C302843A96
:1007400020F4833020F48FE403C08D2D01C08C2D64
:10075000F8018183888182608883859BFECFFAE6D9
:10076000FA95F1F700C0869917C081E00E94C30294
:10077000843A20F4833020F48FE403C08D2D01C02F
:100780008C2DF8018283888184608883869BFECFCC
:10079000FAE6FA95F1F700C0879917C081E00E9448
:1007A000C302843A20F4833020F48FE403C08D2DFB
:1007B00001C08C2DF8018383888188608883879BA2
:1007C000FECFFAE6FA95F1F700C0989918C082E0DA
:1007D0000E94C302813720F4823020F48FE403C0EA
:1007E0008D2D01C08C2DF8018087F70180818160FB
:1007F0008083989BFECFFAE6FA95F1F700C09999AD
:1008000017C082E00E94C302813720F4823020F4B6
:100810008FE403C08D2D01C08C2DF8018783888162
:1008200080688883999BFECFFAE6FA95F1F700C0BD
:10083000F701808181FF09C08D7F808388E10E945C
:10084000BD01F80181850E94C701F701808182FF07
:1008500009C08B7F808380E20E94BD01F801828500
:100860000E94C701888184FF09C08F7E88838EE142
:100870000E94BD01F80184810E94C701888185FF23
:1008800009C08F7D888384E20E94BD01F8018581C3
:100890000E94C701888186FF09C08F7B888380E41E
:1008A0000E94BD01F80186810E94C701888180FFF6
:1008B00009C08E7F888384E00E94BD01F801808199
:1008C0000E94C701888181FF09C08D7F88838AE0EB
:1008D0000E94BD01F80181810E94C701888182FFC9
:1008E00009C08B7F888382E10E94BD01F80182816B
:1008F0000E94C701888183FF85CE877F888386E138
:100900000E94BD01F80183810E94C7017BCEEE0FDA
:10091000FF1F0590F491E02D0994A29FB001B39FB1
:10092000C001A39F700D811D1124911DB29F700DF8
:0C093000811D1124911D0895F894FFCF43
:10093C004742312D3F204742322D3F204742332D35
:10094C003F204742342D3F204742352D3F20474220
:10095C00362D3F004742372D3F20D3CFD12D3F209E
:10096C00CCD0C4D2D22D3F20CFCF312D3F20CFCFF2
:04097C00322D3F00D9
:00000001FF
