:100000000C948A000C949F000C949F000C949F0009
:100010000C949F000C949F000C949F000C949F00E4
:100020000C949F000C949F000C949F000C949F00D4
:100030000C949F000C949F000C949F000C949F00C4
:100040000C949F000C949F000C949F000C949F00B4
:100050000C949F00B500B900BE00C300CA00CF00D9
:10006000D600DD00DF01580258025802580258023B
:1000700058025802580258025802580258025802B0
:1000800058025802210258025802580258025802D7
:10009000580258025702D501D701D901DB01DD0111
:1000A000E101E301E501E701E901EB01ED01EF0108
:1000B000F101F301F501F701F901FB01FD01FF0178
:1000C000010203020502070209020B020D020F02E0
:1000D000110213021502170219021B021D021F0250
:1000E00023022502270229022B022D022F023102B0
:1000F00033023502370239023B023D023F02410220
:1001000043024502470249024B024D024F0251028F
:100110005302550211241FBECFE5D4E0DEBFCDBF90
:1001200010E0A0E6B0E0EAE3F9E002C005900D922D
:10013000A43AB107D9F70E94E9020C949B040C94ED
:100140000000379A86B1856086B93198359887B1B5
:100150008F7387B93D9A089590E088309105A0F596
:10016000FC01E65DFF4F0C94860487B1807E87B961
:100170002EC087B1817E87B9389A29C087B1827E27
:1001800087B9399A24C087B1837E87B987B18360E4
:1001900087B91DC087B1847E87B93A9A18C087B1E4
:1001A000857E87B987B1856087B911C087B1867EA2
:1001B00087B987B1866087B90AC087B1877E87B95A
:1001C00087B1876087B903C087B1807E87B9369AC7
:1001D000349BFECF349A85B10895882311F0C69AD6
:1001E00001C0C698662314F4C49A01C0C49866FF7F
:1001F00002C0C39A01C0C39865FF02C0C29A01C081
:10020000C29864FF02C0C19A01C0C198C79A000099
:10021000C79863FF02C0C49A01C0C49862FF02C0BD
:10022000C39A01C0C39861FF02C0C29A01C0C298BC
:1002300060FF02C0C19A01C0C198C79A0000C79868
:100240008FE39CE90197F1F700C00000089587B3A0
:100250008E6D87BB2FEF89EF90E02150804090405A
:10026000E1F700C000002FEF83EF91E021508040C4
:100270009040E1F700C0000063E080E00E94ED00E4
:100280008FEB9DE50197F1F700C0000063E080E08F
:100290000E94ED008FEB9DE50197F1F700C0000093
:1002A00063E080E00E94ED008FEB9DE50197F1F7A0
:1002B00000C000006AE280E00E94ED008FEB9DE547
:1002C0000197F1F700C000006AE280E00E94ED00B3
:1002D0008FEB9DE50197F1F700C0000068E080E03A
:1002E0000E94ED008FEB9DE50197F1F700C0000043
:1002F00061E080E00E94ED008FEB9DE50197F1F752
:1003000000C0000060E180E00E94ED008FEB9DE501
:100310000197F1F700C0000066E080E00E94ED0068
:100320008FEB9DE50197F1F700C0000062E080E0EF
:100330000E94ED008FEB9DE50197F1F700C00000F2
:100340006AE280E00E94ED008FEB9DE50197F1F7F6
:1003500000C000006CE080E00E94ED008FEB9DE5A6
:100360000197F1F700C000000895682F606880E0F1
:100370000E94ED0085ED8A95F1F700000895682F41
:1003800081E00E94ED0085ED8A95F1F70000089567
:10039000482F50E0FA01E85AF109E835F10508F074
:1003A00087C0EE5CFF4F0C94860480EA089582E4D7
:1003B000089581EA089580EE089585E4089582EA1B
:1003C000089583EA089584EA089585EA089586EAFF
:1003D00008958BE4089587EA08958DE4089588E4EC
:1003E00008958FE4089588EA089580E5089583E4E8
:1003F000089584E5089589EA08958AEA089588E5CC
:10040000089581EE08958BEA08958CEA089582EEAE
:1004100008958DEA08958EEA089582E608958FEA98
:10042000089580EB089581EB089581E6089582EBAD
:10043000089583EB089584EB089583EE089585E68F
:10044000089585EB089586EB089587EB089588EB72
:10045000089589EB08958AEB08958BEB08958CEB52
:1004600008958DEB08958FE608958EEB089580E74B
:10047000089583E608958FEB089589E7089584EE43
:10048000089588E7089585EE089580EC089581EC3D
:10049000089586EE089582EC089583EC089584EC27
:1004A000089585EC089586EC089587EC089581E41D
:1004B0000895EF92FF920F931F93CF93FC018081D9
:1004C000882379F07F018F01C0E00E94C801F80104
:1004D0008083CF5F87010C0F111DF801808181118E
:1004E000F4CFCF911F910F91FF90EF9008950F934C
:1004F0001F93CF938C010E945902F80180818823B9
:1005000051F0C0E00E94BF01CF5FF801EC0FF11D78
:1005100080818111F7CFCF911F910F910895CF93D3
:10052000DF93EC0180E00E94B501CE010E947702CA
:10053000DF91CF910895CF93DF93EC0180E40E9487
:10054000B501CE010E947702DF91CF9108958AB361
:10055000886F8ABB8BB387708BBBBC98C49A84B3FB
:100560008C7F84BB85B3836085BBA79AAF9811BA93
:100570008FEF82BB0895EF92FF920F931F93CF935B
:100580007C01CAE000E010E0F70181810E94AC002C
:10059000080F111DC150C1F79801ADECBCEC0E94D1
:1005A0008C04969587959695879596958795F701EE
:1005B0009281981728F09381981720F08FE403C058
:1005C00084EA01C088EACF911F910F91FF90EF90CC
:1005D0000895CF93DF93CDB7DEB7AC970FB6F894FD
:1005E000DEBF0FBECDBF0E94A7020E9427010E945E
:1005F000A10080E690E00E948F0284E890E00E94D3
:100600009B0289818E7F8D7F898391E09A8323EA83
:100610002B8382E08C833D813E7F3D7F3D839E83A3
:100620002F83888739853E7F3D7F39879A872B873F
:100630008C873D853E7F3D7F3D879E872F87888BBA
:1006400039893E7F3D7F398B9A8B2B8B8C8B3D89F3
:100650003E7F3D7F3D8B9E8B2F8B888F398D3E7FDC
:100660003D7F398F9A8F2B8F8C8F2D8D2E7F2D7FF5
:100670002D8F8E8F30E73F8F98A329A12E7F2D7F5E
:1006800029A38AA33BA39CA39DA19E7F9D7F9DA39D
:100690001EA223E32FA388A799A59E7F9D7F99A7DC
:1006A0001AA62BA78CA7B49911C0B49BFECFCE017C
:1006B00085960E94BB029DA180FB91F991609DA34C
:1006C000B49BFECF85E38A95F1F7000080990FC0B7
:1006D000CE0189960E94BB0299A580FB91F9916099
:1006E00099A7809BFECF85E38A95F1F70000819959
:1006F0000FC0CE0141960E94BB02998980FB91F9FF
:100700009160998B819BFECF85E38A95F1F700007C
:1007100082990FC0CE0145960E94BB029D8980FB45
:1007200091F991609D8B829BFECF85E38A95F1F7CD
:10073000000083990FC0CE0149960E94BB02998D9B
:1007400080FB91F99160998F839BFECF85E38A9519
:10075000F1F7000084990FC0CE0101960E94BB0200
:10076000998180FB91F991609983849BFECF85E309
:100770008A95F1F7000085990FC0CE0105960E9479
:10078000BB029D8180FB91F991609D83859BFECF8B
:1007900085E38A95F1F7000086990FC0CE0109968E
:1007A0000E94BB02998580FB91F991609987869B95
:1007B000FECF85E38A95F1F7000087990FC0CE013F
:1007C0000D960E94BB029D8580FB91F991609D87EB
:1007D000879BFECF85E38A95F1F7000098990FC0BB
:1007E000CE0181960E94BB0299A180FB91F9916094
:1007F00099A3989BFECF85E38A95F1F7000099991C
:100800000FC0CE014D960E94BB029D8D80FB91F9D9
:1008100091609D8F999BFECF85E38A95F1F700004B
:100820008DA180FF0AC08E7F8DA388E10E94B50153
:100830008DA1869581700E94BF0189A580FF0AC0A5
:100840008E7F89A780E20E94B50189A58695817077
:100850000E94BF01898980FF0AC08E7F898B8EE14B
:100860000E94B5018989869581700E94BF018D899A
:1008700080FF0AC08E7F8D8B84E20E94B5018D8936
:10088000869581700E94BF01898D80FF0AC08D7F8F
:10089000898F80E40E94B501898D869581700E94C0
:1008A000BF01898180FF0AC08E7F898384E00E9416
:1008B000B5018981869581700E94BF018D8180FF7D
:1008C0000AC08E7F8D838AE00E94B5018D81869556
:1008D00081700E94BF01898580FF0AC08E7F898751
:1008E00082E10E94B5018985869581700E94BF01D1
:1008F0008D8580FFD8CE8E7F8D8786E10E94B501E1
:100900008D85869581700E94BF01CDCEEE0FFF1FB1
:100910000590F491E02D0994A29FB001B39FC0010E
:10092000A39F700D811D1124911DB29F700D811D1B
:0A0930001124911D0895F894FFCFE3
:10093A004742312D3F204742322D3F204742332D37
:10094A003F204742342D3F204742352D3F20474222
:10095A00362D3F004742372D3F20D3CFD12D3F20A0
:10096A00CCD0C4D2D22D3F20CFCF312D3F20CFCFF4
:04097A00322D3F00DB
:00000001FF
