:100000000C948A000C94A7000C94A7000C94A700F1
:100010000C94A7000C94A7000C94E7020C94A70082
:100020000C94A7000C94A7000C94A7000C94A700B4
:100030000C94A7000C94A7000C94A7000C94A700A4
:100040000C94A7000C94A7000C94A7000C94A70094
:100050000C94A700BD00C100C600CB00D200D700A1
:10006000DE00E5002D02A602A602A602A602A60256
:10007000A602A602A602A602A602A602A602A60240
:10008000A602A6026F02A602A602A602A602A60267
:10009000A602A602A50223022502270229022B029C
:1000A0002F02310233023502370239023B023D0290
:1000B0003F02410243024502470249024B024D0200
:1000C0004F02510253025502570259025B025D0270
:1000D0005F02610263026502670269026B026D02E0
:1000E000710273027502770279027B027D027F0240
:1000F000810283028502870289028B028D028F02B0
:10010000910293029502970299029B029D029F021F
:10011000A102A30211241FBECFE5D4E0DEBFCDBFF4
:1001200010E0A0E6B0E0E0E1FBE002C005900D9237
:10013000A23FB107D9F720E0A2EFB0E001C01D92C5
:10014000A33FB207E1F70E9478030C9486050C9454
:100150000000379A86B1856086B93198359887B1A5
:100160008F7387B93D9A089590E088309105A0F586
:10017000FC01E65DFF4F0C94710587B1807E87B965
:100180002EC087B1817E87B9389A29C087B1827E17
:1001900087B9399A24C087B1837E87B987B18360D4
:1001A00087B91DC087B1847E87B93A9A18C087B1D4
:1001B000857E87B987B1856087B911C087B1867E92
:1001C00087B987B1866087B90AC087B1877E87B94A
:1001D00087B1876087B903C087B1807E87B9369AB7
:1001E000349BFECF349A85B10895882311F0C59AC7
:1001F00001C0C598662314F4C39A01C0C39866FF72
:1002000002C0C29A01C0C29865FF02C0C19A01C073
:10021000C19864FF02C0C09A01C0C098C69A00008D
:10022000C69863FF02C0C39A01C0C39862FF02C0B0
:10023000C29A01C0C29861FF02C0C19A01C0C198B0
:1002400060FF02C0C09A01C0C098C69A0000C6985C
:10025000089587B38F6687BB2FEF83EF91E021501E
:1002600080409040E1F700C0000063E080E00E9421
:10027000F5008FEB9DE50197F1F700C0000063E00A
:1002800080E00E94F5008FEB9DE50197F1F700C03B
:10029000000063E080E00E94F5008FEB9DE5019790
:1002A000F1F700C000006AE280E00E94F5008FEBE9
:1002B0009DE50197F1F700C000006AE280E00E942E
:1002C000F5008FEB9DE50197F1F700C0000068E0B5
:1002D00080E00E94F5008FEB9DE50197F1F700C0EB
:1002E000000061E080E00E94F5008FEB9DE5019742
:1002F000F1F700C0000060E180E00E94F5008FEBA4
:100300009DE50197F1F700C0000066E080E00E94E3
:10031000F5008FEB9DE50197F1F700C0000062E06A
:1003200080E00E94F5008FEB9DE50197F1F700C09A
:1003300000006AE280E00E94F5008FEB9DE50197E6
:10034000F1F700C000006CE080E00E94F5008FEB48
:100350009DE50197F1F700C000000895682F6068DF
:1003600080E00E94F50085ED8A95F1F70000089580
:10037000682F81E00E94F50085ED8A95F1F7000075
:1003800008952F923F924F925F926F927F928F9239
:100390009F92AF92BF92CF92DF92EF92FF920F9314
:1003A0001F93CF93DF93EC019881992309F4E4C064
:1003B000DE0120E00F2EF7EC2F2EF02D0F2EF6ECA5
:1003C0003F2EF02D0F2EF5EC4F2EF02D0F2EF4ECCE
:1003D0005F2EF02D0F2EF3EC6F2EF02D0F2EF2EC82
:1003E0007F2EF02D0F2EF6EE8F2EF02D0F2EF1EC2E
:1003F0009F2EF02D0F2EF0ECAF2EF02D0F2EF5EEE0
:10040000BF2EF02D0F2EF8E7CF2EF02D0F2EF4EE8D
:10041000DF2EF02D0F2EF9E7EF2EF02D0F2EFFEB34
:10042000FF2EF02D03E610E73EEB8FE6492F50E05C
:10043000FA01E85AF109E835F10508F087C0EE5CE9
:10044000FF4F0C94710590EA81C092E47FC091EA5D
:100450007DC090EE7BC095E479C092EA77C093EAC4
:1004600075C094EA73C095EA71C096EA6FC09BE4C8
:100470006DC097EA6BC09DE469C098E467C09FE4D3
:1004800065C098EA63C090E561C093E45FC094E5FD
:100490005DC099EA5BC09AEA59C098E557C091EEF1
:1004A00055C09BEA53C09CEA51C092EE4FC09DEAF2
:1004B0004DC09EEA4BC092E649C09FEA47C090EB10
:1004C00045C091EB43C091E641C092EB3FC093EB36
:1004D0003DC094EB3BC093EE39C095E637C095EB39
:1004E00035C096EB33C097EB31C098EB2FC099EB3A
:1004F0002DC09AEB2BC09BEB29C09CEB27C09DEB3A
:1005000025C0982F23C0932F21C0912F1FC0902F5B
:100510001DC09F2D1BC09E2D19C09D2D17C09C2D49
:1005200015C09B2D13C09A2D11C0992D0FC0982D69
:100530000DC0972D0BC0962D09C0952D07C0942D89
:1005400005C0932D03C0922D01C091E49C932F5FB1
:10055000DE01A20FB11D9C91911168CF8881882383
:1005600059F08E01D0E00E94B801DF5FF801ED0F75
:10057000F11D80818111F7CFDF91CF911F910F91F4
:10058000FF90EF90DF90CF90BF90AF909F908F90B3
:100590007F906F905F904F903F902F900895CF93F2
:1005A000DF93EC0180E00E94AE01CE010E94C10108
:1005B000DF91CF910895CF93DF93EC0180E40E9407
:1005C000AE01CE010E94C101DF91CF9108951F922B
:1005D0000F920FB60F9211248F938091F2008370C7
:1005E000813041F4DC9A8091F2008C7F82608093AC
:1005F000F2000BC08091F2008370823031F4DC98FD
:100600008091F20083608093F2008091F2008695E1
:1006100086958370813041F4DB9A8091F200837F6C
:1006200088608093F2000DC08091F20086958695D7
:100630008370823031F4DB988091F2008C6080937B
:10064000F2008091F2008370833041F48091F200D7
:10065000869586958370833009F41EBC1DBC1CBC36
:100660008F910F900FBE0F901F9018958AB3886FCF
:100670008ABB8BB387708BBBBC98C49A84B38C7BCA
:1006800084BB85B3836485BBA79AAF9811BA8FEFFB
:1006900082BB0895EF92FF920F931F93CF937C013B
:1006A000CAE000E010E0F70182810E94B400080F68
:1006B000111DC150C1F79801ADECBCEC0E9477054B
:1006C000969587959695879596958795F701948148
:1006D000981728F09581981720F08FE403C084EADA
:1006E00001C088EACF911F910F91FF90EF9008957C
:1006F000CF93DF93CDB7DEB7C855D1090FB6F894C5
:10070000DEBF0FBECDBF0E9436030E9464050E946B
:1007100029010E94A900789482EA90E00E94CF0209
:100720008AEC90E00E94DB0226E0E0E6F0E0CE01F9
:100730000196DC0101900D922A95E1F726E0E6E6AC
:10074000F0E0DE01179601900D922A95E1F726E080
:10075000ECE6F0E0DE011D9601900D922A95E1F79E
:1007600026E0E2E7F0E0DE01539601900D922A9533
:10077000E1F726E0E8E7F0E0DE01599601900D92FE
:100780002A95E1F726E0EEE7F0E0DE015F960190C2
:100790000D922A95E1F726E0E4E8F0E0DE01959677
:1007A00001900D922A95E1F726E0EAE8F0E0DE01FB
:1007B0009B9601900D922A95E1F726E0E0E9F0E0A2
:1007C000DE01D19601900D922A95E1F726E0E6E947
:1007D000F0E0DE01D79601900D922A95E1F726E030
:1007E000ECE9F0E0DE01DD9601900D922A95E1F74B
:1007F00025969FAF8EAF2597069627969FAF8EAF13
:100800002797069629969FAF8EAF299706962B9627
:100810009FAF8EAF2B9706962D969FAF8EAF2D97DD
:1008200006962F969FAF8EAF2F97069661969FAF35
:100830008EAF6197069663969FAF8EAF63970696CD
:1008400065969FAF8EAF6597069667969FAF8EAF02
:100850006797069669969FAF8EAF6997B49911C056
:10086000CE01C7960E944A0388AF9FA991609FABB3
:10087000843A09F4DF9AB49BFECF85E38A95F1F7B9
:100880000000809911C0CE01CD960E944A038EAF20
:100890009DAD91609DAF843A09F4AF9A809BFECFE5
:1008A000E5E3EA95F1F7000081991AC0CE01499677
:1008B0000E944A038A8F998D9160998F843A51F4EE
:1008C0008091F200837031F48091F2008C7F81601E
:1008D0008093F200819BFECFF5E3FA95F1F70000DB
:1008E00082991AC0CE014F960E944A0388A39F8D19
:1008F00091609F8F843A51F48091F200837031F4BB
:100900008091F2008C7F81608093F200829BFECF09
:1009100085E38A95F1F7000083991AC0CE01859688
:100920000E944A038EA39DA191609DA3843A51F435
:100930008091F200837031F48091F2008C7F8160AD
:100940008093F200839BFECFE5E3EA95F1F7000088
:1009500084991CC0CE0101960E944A038A83998122
:1009600091609983843A61F48091F200869586952E
:10097000837031F48091F200837F84608093F20071
:10098000849BFECFF5E3FA95F1F7000085991CC032
:10099000CE0107960E944A0388879F8191609F83BA
:1009A000843A61F48091F20086958695837031F4E3
:1009B0008091F200837F84608093F200859BFECF5C
:1009C00085E38A95F1F7000086991CC0CE010D964B
:1009D0000E944A038E879D8591609D87843A61F4C9
:1009E0008091F20086958695837031F48091F200B3
:1009F000837F84608093F200869BFECFE5E3EA95D7
:100A0000F1F7000087991CC0CE0143960E944A036B
:100A10008C8B9B8991609B8B843A61F48091F2006E
:100A200086958695837031F48091F200837F84608F
:100A30008093F200879BFECFF5E3FA95F1F7000073
:100A4000989911C0CE01C1960E944A038AAB99A918
:100A5000916099AB843A09F4DE9A989BFECF85E3C6
:100A60008A95F1F70000999927C0CE018B960E94D4
:100A70004A038CA79BA591609BA7843A09F4DD9A51
:100A8000999BFECFE5E3EA95F1F7000015C0F80168
:100A9000E190F1908F01F701808180FF09C08E7F86
:100AA000808383810E94AE01F70181810E94B80199
:100AB0000C151D0561F7D2CE8E010D5B1F4F68012D
:100AC000F6E1CF0ED11CE3CF1DBC1CBC1FBC85E0E2
:100AD0008EBD89B7806189BF89E09DE39BBD8ABDDA
:100AE0000895EE0FFF1F0590F491E02D0994A29F49
:100AF000B001B39FC001A39F700D811D1124911DF2
:100B0000B29F700D811D1124911D0895F894FFCF9F
:100B10000000010432050000010A32050000011046
:100B200032050000011632050000014432050000C4
:100B3000014A32050000015032050000021E320455
:100B40000000025E32040000002628030000006658
:100B500028034742312D3F204742322D3F20474254
:100B6000332D3F204742342D3F202020D3CFD12D9D
:100B70003F202020CFCF312D3F004742352D3F2051
:100B80004742362D3F204742372D3F20202020204E
:100B900020202020CCD0C42D3F202020CFCF322DAC
:020BA0003F0014
:00000001FF
