:100000000C948A000C949F000C949F000C949F0009
:100010000C949F000C949F000C949F000C949F00E4
:100020000C949F000C949F000C949F000C949F00D4
:100030000C949F000C949F000C949F000C949F00C4
:100040000C949F000C949F000C949F000C949F00B4
:100050000C949F00B500B900BE00C300CA00CF00D9
:10006000D600DD003402AD02AD02AD02AD02AD023C
:10007000AD02AD02AD02AD02AD02AD02AD02AD0208
:10008000AD02AD027602AD02AD02AD02AD02AD022F
:10009000AD02AD02AC022A022C022E023002320264
:1000A000360238023A023C023E0240024202440258
:1000B000460248024A024C024E02500252025402C8
:1000C000560258025A025C025E0260026202640238
:1000D000660268026A026C026E02700272027402A8
:1000E00078027A027C027E02800282028402860208
:1000F00088028A028C028E02900292029402960278
:1001000098029A029C029E02A002A202A402A602E7
:10011000A802AA0211241FBECFE5D4E0DEBFCDBFE6
:1001200010E0A0E6B0E0EAE9F9E002C005900D9227
:10013000A63DB107D9F70E9430030C94CB040C9470
:100140000000379A86B1856086B93198359887B1B5
:100150008F7387B93D9A089590E088309105A0F596
:10016000FC01E65DFF4F0C94B60487B1807E87B931
:100170002EC087B1817E87B9389A29C087B1827E27
:1001800087B9399A24C087B1837E87B987B18360E4
:1001900087B91DC087B1847E87B93A9A18C087B1E4
:1001A000857E87B987B1856087B911C087B1867EA2
:1001B00087B987B1866087B90AC087B1877E87B95A
:1001C00087B1876087B903C087B1807E87B9369AC7
:1001D000349BFECF349A85B10895882311F0C69AD6
:1001E00001C0C698662314F4C49A01C0C49866FF7F
:1001F00002C0C39A01C0C39865FF02C0C29A01C081
:10020000C29864FF02C0C19A01C0C198C79A000099
:10021000C79863FF02C0C49A01C0C49862FF02C0BD
:10022000C39A01C0C39861FF02C0C29A01C0C298BC
:1002300060FF02C0C19A01C0C198C79A0000C79868
:100240008FE39CE90197F1F700C00000089587B3A0
:100250008E6D87BB2FEF89EF90E02150804090405A
:10026000E1F700C000002FEF83EF91E021508040C4
:100270009040E1F700C0000063E080E00E94ED00E4
:100280008FEB9DE50197F1F700C0000063E080E08F
:100290000E94ED008FEB9DE50197F1F700C0000093
:1002A00063E080E00E94ED008FEB9DE50197F1F7A0
:1002B00000C000006AE280E00E94ED008FEB9DE547
:1002C0000197F1F700C000006AE280E00E94ED00B3
:1002D0008FEB9DE50197F1F700C0000068E080E03A
:1002E0000E94ED008FEB9DE50197F1F700C0000043
:1002F00061E080E00E94ED008FEB9DE50197F1F752
:1003000000C0000060E180E00E94ED008FEB9DE501
:100310000197F1F700C0000066E080E00E94ED0068
:100320008FEB9DE50197F1F700C0000062E080E0EF
:100330000E94ED008FEB9DE50197F1F700C00000F2
:100340006AE280E00E94ED008FEB9DE50197F1F7F6
:1003500000C000006CE080E00E94ED008FEB9DE5A6
:100360000197F1F700C000000895682F606880E0F1
:100370000E94ED0085ED8A95F1F700000895682F41
:1003800081E00E94ED0085ED8A95F1F70000089567
:100390002F923F924F925F926F927F928F929F9295
:1003A000AF92BF92CF92DF92EF92FF920F931F9383
:1003B000CF93DF93EC019881992309F4E4C0DE0127
:1003C00020E00F2EF7EC2F2EF02D0F2EF6EC3F2E07
:1003D000F02D0F2EF5EC4F2EF02D0F2EF4EC5F2E9E
:1003E000F02D0F2EF3EC6F2EF02D0F2EF2EC7F2E52
:1003F000F02D0F2EF6EE8F2EF02D0F2EF1EC9F2EFE
:10040000F02D0F2EF0ECAF2EF02D0F2EF5EEBF2EAF
:10041000F02D0F2EF8E7CF2EF02D0F2EF4EEDF2E5D
:10042000F02D0F2EF9E7EF2EF02D0F2EFFEBFF2E04
:10043000F02D03E610E73EEB8FE6492F50E0FA017E
:10044000E85AF109E835F10508F087C0EE5CFF4F86
:100450000C94B60490EA81C092E47FC091EA7DC01A
:1004600090EE7BC095E479C092EA77C093EA75C0BC
:1004700094EA73C095EA71C096EA6FC09BE46DC0C0
:1004800097EA6BC09DE469C098E467C09FE465C0CB
:1004900098EA63C090E561C093E45FC094E55DC0F5
:1004A00099EA5BC09AEA59C098E557C091EE55C0E9
:1004B0009BEA53C09CEA51C092EE4FC09DEA4DC0EA
:1004C0009EEA4BC092E649C09FEA47C090EB45C008
:1004D00091EB43C091E641C092EB3FC093EB3DC02E
:1004E00094EB3BC093EE39C095E637C095EB35C031
:1004F00096EB33C097EB31C098EB2FC099EB2DC032
:100500009AEB2BC09BEB29C09CEB27C09DEB25C031
:10051000982F23C0932F21C0912F1FC0902F1DC053
:100520009F2D1BC09E2D19C09D2D17C09C2D15C041
:100530009B2D13C09A2D11C0992D0FC0982D0DC061
:10054000972D0BC0962D09C0952D07C0942D05C081
:10055000932D03C0922D01C091E49C932F5FDE0187
:10056000A20FB11D9C91911168CF8881882359F009
:100570008E01D0E00E94BF01DF5FF801ED0FF11D99
:1005800080818111F7CFDF91CF911F910F91FF9063
:10059000EF90DF90CF90BF90AF909F908F907F9023
:1005A0006F905F904F903F902F900895CF93DF937F
:1005B000EC0180E00E94B501CE010E94C801DF91EC
:1005C000CF910895CF93DF93EC0180E40E94B501B1
:1005D000CE010E94C801DF91CF9108958AB3886F40
:1005E0008ABB8BB387708BBBBC98C49A84B38C7F57
:1005F00084BB85B3836085BBA79AAF9811BA8FEF90
:1006000082BB0895EF92FF920F931F93CF937C01CB
:10061000CAE000E010E0F70181810E94AC00080F01
:10062000111DC150C1F79801ADECBCEC0E94BC0497
:10063000969587959695879596958795F7019381D9
:10064000981728F09481981720F08FE403C084EA6B
:1006500001C088EACF911F910F91FF90EF9008950C
:10066000CF93DF93CDB7DEB7CD54D1090FB6F89451
:10067000DEBF0FBECDBF0E94EE020E9427010E9486
:10068000A10082E990E00E94D60286EB90E00E94F1
:10069000E20225E0E0E6F0E0CE010196DC01019007
:1006A0000D922A95E1F725E0E5E6F0E0DE011696E9
:1006B00001900D922A95E1F725E0EAE6F0E0DE01EF
:1006C0001B9601900D922A95E1F725E0EFE6F0E008
:1006D000DE01509601900D922A95E1F725E0E4E7BE
:1006E000F0E0DE01559601900D922A95E1F725E0A4
:1006F000E9E7F0E0DE015A9601900D922A95E1F7C4
:1007000025E0EEE7F0E0DE015F9601900D922A957C
:10071000E1F725E0E3E8F0E0DE01949601900D9228
:100720002A95E1F725E0E3E8F0E0DE0199960190F3
:100730000D922A95E1F725E0E8E8F0E0DE019E96CB
:1007400001900D922A95E1F725E0EDE8F0E0DE0159
:10075000D39601900D922A95E1F799AF88AF05964F
:100760009BAF8AAF05969DAF8CAF05969FAF8EAFBE
:10077000059622969FAF8EAF2297059624969FAF3F
:100780008EAF2497059626969FAF8EAF2697059637
:1007900028969FAF8EAF289705962A969FAF8EAF6B
:1007A0002A9705962C969FAF8EAF2C9705962E967E
:1007B0009FAF8EAF2E97B4990FC0CE018E960E9438
:1007C00002039EA580FB91F991609EA7B49BFECF8A
:1007D00085E38A95F1F7000080990FC0CE01C3969A
:1007E0000E9402039BA980FB91F991609BAB809BC7
:1007F000FECFE5E3EA95F1F7000081990FC0CE0145
:1008000045960E9402039D8980FB91F991609D8B22
:10081000819BFECFF5E3FA95F1F7000082990FC0B6
:10082000CE014A960E9402039A8D80FB91F9916055
:100830009A8F829BFECF85E38A95F1F7000083991A
:100840000FC0CE014F960E9402039F8D80FB91F94D
:1008500091609F8F839BFECFE5E3EA95F1F700005F
:1008600084990FC0CE0101960E940203998180FBFA
:1008700091F991609983849BFECFF5E3FA95F1F7A6
:10088000000085990FC0CE0106960E9402039E814A
:1008900080FB91F991609E83859BFECF85E38A95CD
:1008A000F1F7000086990FC0CE010B960E9402035B
:1008B0009B8580FB91F991609B87869BFECFE5E34A
:1008C000EA95F1F7000087990FC0CE0140960E948B
:1008D0000203988980FB91F99160988B879BFECFEA
:1008E000F5E3FA95F1F7000098990FC0CE018996CB
:1008F0000E94020399A580FB91F9916099A7989BAA
:10090000FECF85E38A95F1F70000999927C0CE01C3
:1009100084960E9402039CA180FB91F991609CA3A4
:10092000999BFECFE5E3EA95F1F7000017C0F801C7
:10093000E190F1908F01F701808180FF0BC08E7FE5
:10094000808382810E94B501F70180818695817044
:100950000E94BF010C151D0551F72DCF8E01085CBB
:100960001F4F6801F6E1CF0ED11CE1CFEE0FFF1F44
:100970000590F491E02D0994A29FB001B39FC001AE
:10098000A39F700D811D1124911DB29F700D811DBB
:0A0990001124911D0895F894FFCF83
:10099A00000104A30200010AA302000112A302003B
:1009AA000116A30200011EA302000124A3020001F2
:1009BA0040A3020002007001000018330200002068
:1009CA0033024742312D3F204742322D3F204742D2
:1009DA00332D3F204742342D3F204742352D3F20BB
:1009EA004742362D3F004742372D3F20D3CFD12DE6
:1009FA003F20CCD0C4D2D22D3F20CFCF312D3F20A3
:060A0A00CFCF322D3F00AA
:00000001FF
